{
  "contractName": "Dweet",
  "abi": [
    {
      "constant": true,
      "inputs": [
        {
          "name": "",
          "type": "address"
        }
      ],
      "name": "owners",
      "outputs": [
        {
          "name": "",
          "type": "bytes32"
        }
      ],
      "payable": false,
      "stateMutability": "view",
      "type": "function"
    },
    {
      "constant": true,
      "inputs": [
        {
          "name": "",
          "type": "bytes32"
        }
      ],
      "name": "users",
      "outputs": [
        {
          "name": "creationDate",
          "type": "uint256"
        },
        {
          "name": "username",
          "type": "string"
        },
        {
          "name": "description",
          "type": "string"
        },
        {
          "name": "owner",
          "type": "address"
        },
        {
          "name": "picture",
          "type": "string"
        }
      ],
      "payable": false,
      "stateMutability": "view",
      "type": "function"
    },
    {
      "anonymous": false,
      "inputs": [
        {
          "indexed": true,
          "name": "from",
          "type": "bytes32"
        },
        {
          "indexed": false,
          "name": "tweet",
          "type": "string"
        },
        {
          "indexed": false,
          "name": "time",
          "type": "uint256"
        }
      ],
      "name": "NewTweet",
      "type": "event"
    },
    {
      "constant": false,
      "inputs": [
        {
          "name": "username",
          "type": "string"
        },
        {
          "name": "description",
          "type": "string"
        }
      ],
      "name": "createAccount",
      "outputs": [],
      "payable": false,
      "stateMutability": "nonpayable",
      "type": "function"
    },
    {
      "constant": false,
      "inputs": [
        {
          "name": "usernameHash",
          "type": "bytes32"
        },
        {
          "name": "description",
          "type": "string"
        },
        {
          "name": "pictureHash",
          "type": "string"
        }
      ],
      "name": "editAccount",
      "outputs": [],
      "payable": false,
      "stateMutability": "nonpayable",
      "type": "function"
    },
    {
      "constant": true,
      "inputs": [
        {
          "name": "usernameHash",
          "type": "bytes32"
        }
      ],
      "name": "userExists",
      "outputs": [
        {
          "name": "",
          "type": "bool"
        }
      ],
      "payable": false,
      "stateMutability": "view",
      "type": "function"
    },
    {
      "constant": false,
      "inputs": [
        {
          "name": "content",
          "type": "string"
        }
      ],
      "name": "tweet",
      "outputs": [],
      "payable": false,
      "stateMutability": "nonpayable",
      "type": "function"
    }
  ],
  "bytecode": "0x608060405234801561001057600080fd5b50610db0806100206000396000f300608060405260043610610078576000357c0100000000000000000000000000000000000000000000000000000000900463ffffffff168063022914a71461007d57806319289287146100dc57806366f807dd1461018b578063a2e8452c14610248578063cea6ab9814610291578063fb46d4c51461044d575b600080fd5b34801561008957600080fd5b506100be600480360381019080803573ffffffffffffffffffffffffffffffffffffffff1690602001909291905050506104b6565b60405180826000191660001916815260200191505060405180910390f35b3480156100e857600080fd5b50610189600480360381019080803590602001908201803590602001908080601f0160208091040260200160405190810160405280939291908181526020018383808284378201915050505050509192919290803590602001908201803590602001908080601f01602080910402602001604051908101604052809392919081815260200183838082843782019150505050505091929192905050506104ce565b005b34801561019757600080fd5b506102466004803603810190808035600019169060200190929190803590602001908201803590602001908080601f0160208091040260200160405190810160405280939291908181526020018383808284378201915050505050509192919290803590602001908201803590602001908080601f0160208091040260200160405190810160405280939291908181526020018383808284378201915050505050509192919290505050610760565b005b34801561025457600080fd5b50610277600480360381019080803560001916906020019092919050505061084b565b604051808215151515815260200191505060405180910390f35b34801561029d57600080fd5b506102c06004803603810190808035600019169060200190929190505050610875565b6040518086815260200180602001806020018573ffffffffffffffffffffffffffffffffffffffff1673ffffffffffffffffffffffffffffffffffffffff16815260200180602001848103845288818151815260200191508051906020019080838360005b83811015610340578082015181840152602081019050610325565b50505050905090810190601f16801561036d5780820380516001836020036101000a031916815260200191505b50848103835287818151815260200191508051906020019080838360005b838110156103a657808201518184015260208101905061038b565b50505050905090810190601f1680156103d35780820380516001836020036101000a031916815260200191505b50848103825285818151815260200191508051906020019080838360005b8381101561040c5780820151818401526020810190506103f1565b50505050905090810190601f1680156104395780820380516001836020036101000a031916815260200191505b509850505050505050505060405180910390f35b34801561045957600080fd5b506104b4600480360381019080803590602001908201803590602001908080601f0160208091040260200160405190810160405280939291908181526020018383808284378201915050505050509192919290505050610a93565b005b60016020528060005260406000206000915090505481565b60008083511115156104df57600080fd5b826040516020018082805190602001908083835b60208310151561051857805182526020820191506020810190506020830392506104f3565b6001836020036101000a0380198251168184511680821785525050505050509050019150506040516020818303038152906040526040518082805190602001908083835b602083101515610581578051825260208201915060208101905060208303925061055c565b6001836020036101000a0380198251168184511680821785525050505050509050019150506040518091039020905060008060008360001916600019168152602001908152602001600020600001541415156105dc57600080fd5b6000600102600160003373ffffffffffffffffffffffffffffffffffffffff1673ffffffffffffffffffffffffffffffffffffffff168152602001908152602001600020546000191614151561063157600080fd5b4260008083600019166000191681526020019081526020016000206000018190555033600080836000191660001916815260200190815260200160002060030160006101000a81548173ffffffffffffffffffffffffffffffffffffffff021916908373ffffffffffffffffffffffffffffffffffffffff16021790555082600080836000191660001916815260200190815260200160002060010190805190602001906106e0929190610c3f565b508160008083600019166000191681526020019081526020016000206002019080519060200190610712929190610c3f565b5080600160003373ffffffffffffffffffffffffffffffffffffffff1673ffffffffffffffffffffffffffffffffffffffff1681526020019081526020016000208160001916905550505050565b3373ffffffffffffffffffffffffffffffffffffffff16600080856000191660001916815260200190815260200160002060030160009054906101000a900473ffffffffffffffffffffffffffffffffffffffff1673ffffffffffffffffffffffffffffffffffffffff161415156107d757600080fd5b8160008085600019166000191681526020019081526020016000206002019080519060200190610808929190610c3f565b50600081511115610846578060008085600019166000191681526020019081526020016000206004019080519060200190610844929190610c3f565b505b505050565b60008060008084600019166000191681526020019081526020016000206000015414159050919050565b6000602052806000526040600020600091509050806000015490806001018054600181600116156101000203166002900480601f0160208091040260200160405190810160405280929190818152602001828054600181600116156101000203166002900480156109275780601f106108fc57610100808354040283529160200191610927565b820191906000526020600020905b81548152906001019060200180831161090a57829003601f168201915b505050505090806002018054600181600116156101000203166002900480601f0160208091040260200160405190810160405280929190818152602001828054600181600116156101000203166002900480156109c55780601f1061099a576101008083540402835291602001916109c5565b820191906000526020600020905b8154815290600101906020018083116109a857829003601f168201915b5050505050908060030160009054906101000a900473ffffffffffffffffffffffffffffffffffffffff1690806004018054600181600116156101000203166002900480601f016020809104026020016040519081016040528092919081815260200182805460018160011615610100020316600290048015610a895780601f10610a5e57610100808354040283529160200191610a89565b820191906000526020600020905b815481529060010190602001808311610a6c57829003601f168201915b5050505050905085565b600080600080600160003373ffffffffffffffffffffffffffffffffffffffff1673ffffffffffffffffffffffffffffffffffffffff16815260200190815260200160002050602060ff16111515610aea57600080fd5b600160003373ffffffffffffffffffffffffffffffffffffffff1673ffffffffffffffffffffffffffffffffffffffff16815260200190815260200160002054925060008084600019166000191681526020019081526020016000209150816005018054809190600101610b5e9190610cbf565b9050838260050182815481101515610b7257fe5b906000526020600020019080519060200190610b8f929190610c3f565b5082600019167f37ec21745c0931cd2007689817f344627c125a2bca7338721f55fcd6d07d20cf85426040518080602001838152602001828103825284818151815260200191508051906020019080838360005b83811015610bfe578082015181840152602081019050610be3565b50505050905090810190601f168015610c2b5780820380516001836020036101000a031916815260200191505b50935050505060405180910390a250505050565b828054600181600116156101000203166002900490600052602060002090601f016020900481019282601f10610c8057805160ff1916838001178555610cae565b82800160010185558215610cae579182015b82811115610cad578251825591602001919060010190610c92565b5b509050610cbb9190610ceb565b5090565b815481835581811115610ce657818360005260206000209182019101610ce59190610d10565b5b505050565b610d0d91905b80821115610d09576000816000905550600101610cf1565b5090565b90565b610d3991905b80821115610d355760008181610d2c9190610d3c565b50600101610d16565b5090565b90565b50805460018160011615610100020316600290046000825580601f10610d625750610d81565b601f016020900490600052602060002090810190610d809190610ceb565b5b505600a165627a7a72305820fbbfe887b4dff899c81d5fb5ad7c78bebcc86936d71f56f1be51d3022a61074b0029",
  "source": "pragma solidity ^0.4.24;\n\ncontract Dweet {\n    /**\n     * User\n     *\n     * Struct holding the profile deatils of the user.\n     */\n    struct User {\n        uint creationDate;      // date user was created\n        string username;        // username of the user\n        string description;     // user profile description\n        address owner;          // address of the account who created the user\n        string picture;         // IFPS hash of the user's profile picture\n        string[] tweets;        // array that holds the user's tweets\n    }\n\n    /**\n     * users\n     *\n     * Maps the keccak256 hash of a username to the deatils of the user\n     *\n     * {bytes32} [KEY] the keccak256 hash of the username\n     * {User} the User struct containing the deatils of the user\n     */\n    mapping (bytes32 => User) public users;\n    \n    /**\n     * owners\n     *\n     * Maps the address of the owner account to the username hash of the \n     * owned user. This is needed so we can retrieve an account from the\n     * current address\n     *\n     * {address} [KEY] the address of the owner who owns the user\n     * {bytes32} the keccak256 hash of the username\n     */\n    mapping (address => bytes32) public owners;\n\n    /**\n     * NewTweet\n     *\n     * Event to be emitted once a tweet is stored in the contract\n     * {bytes32} from - keccak256-hashed username of user who posted the tweet.\n     *                          This field is indexed so it can be filtered.\n     * {string} tweet - the tweet contents\n     */\n    event NewTweet(\n        // bytes32 indexed from,\n        bytes32 indexed from,\n        string tweet,\n        uint time\n    );\n\n    /**\n     * createAccount\n     *\n     * Creates a user account, storing the user (and user details) in the contract.\n     * Additionally, a mapping is created between the owner who created the user\n     * (msg.sender) and the keccak256-hash of the username\n     * {string} username - the username of the user\n     * {string} description - the user profile description\n     */\n    function createAccount(string username, string description) public {\n        // ensure a null or empty string wasn't passed in\n        require(bytes(username).length > 0);\n\n        // generate the username hash using keccak\n        bytes32 usernameHash = keccak256(abi.encodePacked(username));\n\n        // reject if username already registered\n        require(users[usernameHash].creationDate == 0);\n\n        // reject if sending adddress already created a user\n        require(owners[msg.sender] == 0);\n\n        // add a user to the users mapping and populate details \n        // (creationDate, owner, username, description)\n        users[usernameHash].creationDate = now;\n        users[usernameHash].owner = msg.sender;\n        users[usernameHash].username = username;\n        users[usernameHash].description = description;\n        // add entry to our owners mapping so we can retrieve\n        // user by their address\n        owners[msg.sender] = usernameHash;\n    }\n\n    /**\n     * editAccount\n     *\n     * Edits the deteails of a user's profile.\n     * {bytes32} usernameHash - the keccak256-hashed username of the user to edit\n     * {string} description (optional) - the updated user profile description\n     * {string} pictureHash (optional) - the IFPS hash of the user's updated profile picture\n     */\n    function editAccount(bytes32 usernameHash, string description, string pictureHash) public {\n        // ensure the user exists and that the creator of the user is the\n        // sender of the transaction\n        require(users[usernameHash].owner == msg.sender);\n\n        // update the description (could be empty)\n        users[usernameHash].description = description;\n        // only update the user's picture if the hash passed in is\n        if (bytes(pictureHash).length > 0) {\n        users[usernameHash].picture = pictureHash;\n        }\n        // not empty or null (essentially disallows deletions)\n    }\n\n    /**\n     * userExists\n     *\n     * Validates whether or not a user has an account in the user mapping\n     * {bytes32} usernameHash - the keccak256-hashed username of the user to validate\n     * {bool} - returns true if the hashed username exists in the user mapping, false otherwise\n     */\n    function userExists(bytes32 usernameHash) public view returns (bool) {\n        // must check a property... bc solidity!\n        return users[usernameHash].creationDate != 0;\n    }\n\n    /**\n     * tweet\n     *\n     * Adds a tweet to the user's tweets and emits an event notifying listeners\n     * that a tweet happened. Assumes the user sending the transaction is the tweeter.\n     * {string} content - the tweet content\n     */\n    function tweet(string content) public {\n        // ensure the sender has an account\n        require(owners[msg.sender].length > 0);\n\n        // get the username hash of the sender's account\n        bytes32 usernameHash = owners[msg.sender];\n\n        // get our user\n        User storage user = users[usernameHash];\n        // get our new tweet index\n        uint tweetIndex = user.tweets.length++;\n        // update the user's tweets at the tweet index\n        user.tweets[tweetIndex] = content;\n        // emit the tweet event and notify the listeners\n        emit NewTweet(usernameHash, content, now);\n    }\n}\n",
  "sourcePath": "/Users/sounak/Documents/clg/blockchain/dweet/dweet-react/contracts/Dweet.sol",
  "compiler": {
    "name": "solc",
    "version": "0.4.24+commit.e67f0147.Emscripten.clang"
  },
  "schemaVersion": "2.0.1",
  "updatedAt": "2018-11-14T04:09:37.622Z"
}